:040000006F00D04776
:100004000000000000000000900000209A0700207B
:10001400A9BDF9F5900000200000000000000000D8
:10002400900000209000002000000000000000006C
:10003400900000200000000090000020000000005C
:1000440090000020900000209000002090000020EC
:1000540090000020900000208A0100200000000091
:1000640090000020900000209000002090000020CC
:1000740090000020900000209000002090000020BC
:1000840090000020900000209000002090000020AC
:1000940001A0B786004083C766028D8BF9C783C76A
:1000A40001818DEF93878181984393070004631E38
:1000B400F70A23AC01802382060237E700E0370603
:1000C40040002320C7180100010083C7660293F78C
:1000D400C70F2383F6022320C710828037170040FE
:1000E4008357470603568706138741811843918F28
:1000F400998FF99BC5DB63D4070093870740930668
:10010400E00363D4F6009307E0031386270023ACCF
:10011400C18093D517402388B1D2A945A388B1D211
:1001240093860183BA96938501CF01457D58930840
:10013400F03FFD17639C070319C123AAE1801376DE
:10014400F60FB78700402382C702B7E600E0370600
:10015400400023A0C6180100010003C767021377FB
:10016400C70F2383E70223A0C610828003C50600BD
:10017400050785062381A50463D5E8000147938616
:1001840001838505054575B78280011122CE26CCF1
:100194004ACA4EC852C6B787004003C7670003C4A3
:1001A40077001377F70F937627006384063C137464
:1001B400F40F13770403930600036305D702137740
:1001C400F403930600026309D70C63EDE606854643
:1001D400630AD70A91466303D714B78700400947D7
:1001E4002383E70062046184635A041E938701C376
:1001F40003D7670003C901C3137609062392E1827A
:1002040003C71700A383E182930620FC37870040CD
:100214002301D702938601823E87630E06101307DB
:1002240010026318E92683C67182130720026399BA
:10023400E60003C527000589971000E0E78000BCAD
:100244008146ADAC930610026305D70293064002C3
:10025400E315D7F803C72703134707042389E702E5
:1002640003C727031377C70F136727002389E70200
:10027400ADB703C767021377C70F1367270023833C
:10028400E702A1BF1377040429DB03C58700971095
:1002940000E0E78020DB91B79386018203C7718277
:1002A40095453686630EB70499466316D70603D977
:1002B400418293070004CA8463F427019304000471
:1002C40083290600C204C18013FAF40F2686330979
:1002D4009940CE85138501C3CE94971000E0E78042
:1002E400E0F92392218323A09182B78700402380E1
:1002F400470303C72702134707042381E702F1BD1D
:1003040003C7370083C6460013770708558FA381B8
:10031400E7000947DDB723800702E5BF137704042C
:10032400E30D07EA03C72703134707082389E702F6
:1003340083C787005DB583C7718229466365F60864
:10034400172600E0130686218A07B2979C43B297CA
:10035400828783D721C313D7870009466308C70858
:100364008D45630FB70885476316F70A972700E0A2
:100374009387872723A0F1820144C947C207C18319
:1003840003D7418263F4E7002392F18203D6460047
:100394009307000483A9060063F4C700130600044E
:1003A40093140601C1802686CE85138501C3971058
:1003B40000E0E780A0EC3386990023A0C182930774
:1003C400F00F6318F40CB78700401307F0FC238187
:1003D400E702B787004009472383E7007244E244F9
:1003E4005249C249324A056173002030972700E020
:1003F4009387C71A23A0F18201449307B004BDBFB9
:1004040093F7F70F85456384B70289CB638AC702E4
:100414006381E7041304F00F81478DB7972700E049
:100424009387C72B23A0F1820144914781BF97276B
:1004340000E09387A71C23A0F1820144B9473DBF84
:10044400972700E09387871C23A0F1820144B147DA
:1004540035B7971700009387678223A0F182014480
:100464009717000083C7878111BF83472700239212
:10047400F18205A083C766002388F1C203D74182B5
:10048400854763F8E7008547DDB783572700238353
:10049400F182620913598941E35409DA83D741820D
:1004A400930600043E8763F4F60013070004420732
:1004B4004183998F9376F70F2392F182B787004097
:1004C4002380D702130700FC19B783470700894626
:1004D400FD8B6398D706834747001147638AE70477
:1004E400636CF7000547E390E7EE378700408347E6
:1004F400670293F7370715A813071008638FE700FF
:1005040013074008E391E7EC37870040834727034C
:1005140093F7C70B93E7270015A03787004083475D
:10052400670293F7C70B93E727002303F70295B7F6
:10053400378700408347270393F737072309F702D8
:1005440089BFE39207E8378700408347670293F740
:10055400C70B93E727002303F7024DBF238801C28B
:1005640031BF239801C203D741828947E3F3E7F2FD
:10057400FDBD9376170089CEA38107000947238127
:10058400E702C9462383D7022389E7020547A9B5B1
:1005940093764700E38206E403C7570011472DBD55
:1005A400011113078008F337078093F787083EC2C9
:1005B40001000100B7170040930570052380B704BC
:1005C400130680FA2380C7040100010083C6B70420
:1005D40093F6F60DA385D704238007049246F3A669
:1005E40006800100010093760502D5CEF33607801C
:1005F40093F6860836C4010001002380B7042380E3
:10060400C70401000100B70614007D89558D88C711
:10061400010001000100010023800704A246F3A6A3
:1006240006800100010073370780137787083AC6F4
:10063400010001002380B7042380C70401000100E6
:10064400010001003727004093061005A303D7805B
:1006540023800704B247F3A7078001000100930732
:100664008008F3B7078093F787083ECE01000100A6
:10067400B7170040130770052380E704130780FAB7
:100684002380E7040100010003C7B70413670708C8
:10069400A385E70423800704F247F3A7078001003A
:1006A40001000561828093760504BDC6F336078098
:1006B40093F6860836C8010001002380B70423801E
:1006C400C70401000100B7061400938606047D895F
:1006D400558D88C701000100010001002380070433
:1006E400C246F3A606800100010073370780137722
:1006F40087083ACA010001002380B7042380C70495
:10070400010001003727004093062005A303D7808A
:1007140023800704D24781B773370780137787088C
:100724003ACC010001002380B7042380C7040100F0
:10073400010098471367070C98C723800704E24712
:1007440019BF0111814601468145114506CE7D2A16
:1007540093078008F3B7078093F787083EC6010024
:100764000100B7170040130770052380E70413073F
:1007740080FA2380E7040100010003C767041367BC
:1007840017002383E70423800704B247F3A70780F5
:1007940001000100F2400561828041118146014659
:1007A40081451145A52213078008F337078093F785
:1007B40087083EC401000100B71700401306700506
:1007C4002380C704930680FA2380D7040100010024
:1007D400FD552396B70223800704A245F3A505809F
:1007E4000100010073370780137787083AC60100B8
:1007F40001002380C7042380D7040100010003C73C
:100804006704136717002383E70423800704B247B0
:10081400F3A707800100010001A0BD473305F502DD
:1008240001007D1575FD8280411122C426C206C6D1
:10083400AA84014463179400B240224492444101C3
:10084400828005041305803E4204C13F4180DDB728
:100854002303048015472303E48001002302A480BA
:10086400828083076480E3CE07FE230304808280B2
:1008740083076480E3CE07FE0345448082808307B8
:100884006480E3CE07FE2302A4808280411126C443
:100894004AC24EC006C61377F50BAD47AA892E8906
:1008A40095446306F70019456537653F8D444E85C9
:1008B4004537FD59FD1463983401B240A2441249EE
:1008C400824941018280135509011375F50F453F93
:1008D4002209CDB7011126CC06CEB7040800513742
:1008E4001545BD37713769372AC6A53F3245937719
:1008F400150089EB136515001375F50FF240E244FA
:1009040005618280FD14E9FC0145CDBF397126DC07
:100914004ADA4ED852D656D45AD25ED006DE62CEC9
:1009240066CCB7E700E07D5783AA070022C603AA76
:10093400470023A0E71823A2E718B71700401307BE
:1009440070052380E704130780FA2380E70483C734
:100954004704930B75FFB684E20793FBFB0F8546B0
:10096400AA892E8B328937240040E187015763FA24
:1009740076016308D5008946130700026313D50086
:100984000157D98F93F7F70FB71C00402382FC045B
:1009940011472303E4801305F00F5D3D094CD13565
:1009A400636D7C11B7050700DA9537870700795521
:1009B40063F2E504B3879500636EF702370B080012
:1009C400A94733EB65016399F90689E48144513DF4
:1009D40026850DA0DA850945553D05090345F9FF2E
:1009E400FD14050B693D81C49377FB0FFDF7DD35DD
:1009F40069FD7D55B7170040130770052380E70490
:100A0400130780FA2380E70403C74704418B23823A
:100A1400E704F250B7E700E023A0571123A24711DF
:100A2400E25432445259C259325AA25A125B825B7E
:100A3400724CE24C21618280A5476395F906856971
:100A44001309F00FB3069900B3742B01B69413493C
:100A5400F9FFB3749900856B33796901416B93870E
:100A6400F9FFB3F7270199E363FC340193D94900F3
:100A7400C147E3E637FF99BF0569C1697D19D9B755
:100A84001305800D638869011305000263847901ED
:100A940013051008CA85DD3B353D21DD4E99B3842D
:100AA4003441D9B7DA852D45D533CA94E30099F298
:100AB40005097D3BA30FA9FED5BF9387F9FF93F7E3
:100AC400F70F6361FC0C83C71C0413073008631F12
:100AD400F70437070800636BEB04B3079B00B70602
:100AE400100063F5D704334BEB0089476393F90691
:100AF4008980D549E38C04ECDA850945413B110929
:100B04000327C9FF91472320E48003076480E34E51
:100B140007FE23033481FD17EDFBFD14110B81C483
:100B24009377FB0FE9FF7D3371F5E1B5B71700400B
:100B340003C75704B70708001377070219E3B787F9
:100B440007007955E378FBEA33079B00E3FFE7F8F6
:100B540055B58547E382F9F2DA852D45053B93893E
:100B6400F4FFE38504E6293393F7390091EB8326F8
:100B740004800327090093074900E39AE6E43E89C9
:100B8400CE84F1BFB5476396F9001305900BC931C4
:100B940035BDB1471305B00AE38BF9FE994763915C
:100BA400F904B7050800B365BB002D45C531814480
:100BB4008D4BA149753963967401832704802320E2
:100BC400F9008504E39834FF8327048013172B016D
:100BD400635507002312F900D5BB2322F900FDB3A6
:100BE4009D476399F90281451305B0044531BD441D
:100BF4002320090023220900FD599D3993F774002D
:100C0400CA9703C70700FD14398D2380A700E39614
:100C140034FF6DBBA1476392F9046D398144630DC0
:100C24000B008D479304C0036308FB009304000585
:100C340063048B01930440041375C507E30895D836
:100C44001945393139390545213126850D3909458B
:100C54003D314931E31C05D669BB91476399F900DD
:100C640013056006F536F53E130590090DB7E38FBD
:080C740009D4F154A9BB0000F2
:100C7C00971100209381C186176100201301C1B721
:100C8C001305400097F5FF1F9385053717060020C5
:100C9C00130606FE63FAC5008322050023A0550047
:100CAC0011059105E3EAC5FE172500001305C5A241
:100CBC00970500209385C5FB1386018163FAC50057
:100CCC008322050023A0550011059105E3EAC5FE1A
:100CDC0013850181938541D96377B50023200500E5
:100CEC001105E36DB5FEFD42739002BC8D4273900D
:100CFC004280930280087390023097F2FF1F938218
:100D0C00A22F93E23200739052309702000093822C
:100D1C00621973901234730020303D432A87637339
:100D2C00C3029377F700BDEFADE5937606FF3D8ADE
:100D3C00BA960CC34CC30CC74CC74107E36BD7FE28
:100D4C0011E28280B306C3408A0697020000969691
:100D5C006780A6002307B700A306B7002306B700D9
:100D6C00A305B7002305B700A304B7002304B700FD
:100D7C00A303B7002303B700A302B7002302B700F5
:100D8C00A301B7002301B700A300B7002300B700ED
:100D9C00828093F5F50F93968500D58D939605017A
:100DAC00D58D61B7939627009702000096968682A0
:100DBC00E78086FA9680C1171D8F3E96E374C3F8C0
:100DCC00A5B7371700408327870A411106C693E75A
:100DDC0007202324F70A854513050010E52C8D45C3
:100DEC0013050020C52CB240410181A9411126C236
:100DFC0006C622C4AA84B71700400565A38007065F
:100E0C0081454105C12CADCC17040020130444EDE1
:100E1C001840B7C705009387878D63FAE706170755
:100E2C000020232FF7EA03454400834554000D8925
:100E3C00CD892382A180A382B18083C76180B9CF81
:100E4C00A12C37170040230C07041440B747390076
:100E5C0093870787B3D7D702B307F04093F7F70F01
:100E6C00A301F70623AA0180938701832314F706B5
:100E7C00938701C32316F706930750F8A300F706D0
:100E8C00B24022442388918092444101828093078E
:100E9C00B05DE3EAE7F89307C05D51B7C12255B7DF
:100EAC0079711305800406D622D426D24AD04ECEB0
:100EBC0052CC56CA5AC85EC697F0FF1FE780C06D69
:100ECC000937171500001305656B8D2B4120014563
:100EDC00313F971400009384E46A130450050549CC
:100EEC009309A00A371A0040914A214B938B11D7D2
:100EFC0097F0FF1FE780601983C7C181F5DB83C5BD
:100F0C0001D72685392903C701D783C7C18163124D
:100F1C00870263FDFA0021466364FB001386F7FF2A
:100F2C00DE85170500201305A5DB892605457D3DCB
:100F3C0009A8637BF9006319370183C711D7A30193
:100F4C00FA06238E01806DB70145D5B74111B787DD
:100F5C00004006C6B7F507002380070081461386BC
:100F6C0001C3E105194597000020E780A09993077C
:100F7C00E03017070020231DF7CE0146970700200D
:100F8C00938707CF938601C31715000013050568D7
:100F9C000D483387C60003470700A3810700A382CF
:100FAC000700935547003D8BAA952A9783C50500EA
:100FBC000347070005062381B7002382E70091074A
:100FCC00E31906FDB78700401307C0FCC206238651
:100FDC00E700C1822398D700138701CF239AE7003B
:100FEC0029472381E70249472383E70209472389DD
:100FFC00E702A3810700130790022380E700B716CE
:10100C00004003D7A6011367070C239DE6007D570C
:10101C002383E7001D472381E700130710F8A38003
:10102C00E700B240B7E700E03707400023A0E71025
:10103C004101828083C7C1818DE305C19307000202
:10104C001376F50F63F4A70013060002238EC180FC
:10105C00938501CF138501D711AC8280B71700405F
:10106C0003C777051A051377E70FA38BE7041397CC
:10107C004500598D136535001375F50FA38CA70426
:10108C0003C7A705C18991C513672700238DE70402
:10109C0082801377D70FDDBFB717004003C77705E2
:1010AC001A051377E70FA38BE70413974500598DA7
:1010BC00136555001375F50FA38CA70403C7A7057B
:1010CC00C18991C513672700238DE70482801377AC
:1010DC00D70FDDBF914763EEB70217170000130758
:1010EC0027548A05BA959C41BA978287B717004056
:1010FC0003A7470B1345F5FF698F23AAE70A03A73C
:10110C00070B698F23A8E70A03A7070A798D23A089
:10111C00A70A8280B717004083A6470B1347F5FF39
:10112C00F98E23AAD70A83A6070B558D23A8A70AE5
:10113C0083A6070A758F23A0E70A8280B7170040A1
:10114C0003A7470B498F23AAE70A03A7070B1345ED
:10115C00F5FF45BFB717004083A6470B1347F5FFB4
:10116C00758F23AAE70A03A7070A598D4DB7B7173E
:10117C00004003A7470B498FEDB7B71700408847CE
:10118C00420541819377050491EB9377F50137552F
:10119C00E801130505803345F50282809377050C31
:1011AC00130700046397E7009377F50137459C1C00
:1011BC00CDB72165130505D08280814737370040B4
:1011CC00A14663C4C700328582800345B740E38ED5
:1011DC00A6FE3385F5000345050085072304A740CB
:1011EC00CDB7938781809C43138741D93E95636C1F
:1011FC00E50017570020130727406366A70023A4B8
:10120C00A1803E858280FD57EDBF411122C406C6E8
:10121C002A84A5372947B307E502B2408D83B3D79B
:10122C00870222449507B3D7E70237370040C2073D
:10123C00C1832316F740410182807165411113056A
:10124C00052006C6D937B7370040130770F823813D
:10125C00E7400D47A381E74013070004A380E74054
:10126C0005472387E740B24041018280B3C7A50000
:10127C008D8B3307C50081E78D4763EEC700AA87C6
:10128C006370E50A83C6050085078505A38FD7FE25
:10129C00E3EAE7FE828093763500AA8791CA83C67B
:1012AC00050085078505A38FD7FE93F63700FDB79C
:1012BC009376C7FF138606FE63F0C70683A305006B
:1012CC0083A2450083AF850003AFC50083AE050143
:1012DC0003AE450103A3850183A8C501938545028F
:1012EC0023A0770003A8C5FF23A2570023A4F7016E
:1012FC0023A6E70123A8D70123AAC70123AC6700C3
:10130C0023AE17019387470223AE07FF75B79041B1
:10131C009107910523AEC7FEE3EBD7FEE3E4E7F6B6
:10132C00828039713EDA2ED232D436D63AD842DCAB
:10133C0046DE9387C18022CC804326CA06CEAA847F
:10134C0009C41C4C99E3228515230C4454102686A1
:10135C00228536C6EF00F016F2406244D244216179
:10136C008280011126CA4AC806CE22CC4EC652C46F
:10137C00AA842E8901C51C4D91E3CD299C4C804437
:10138C0099E32685E521971700009387A72C631C0A
:10139C00F402C0408357C400A18BB1C71C48A1C73D
:1013AC00FD59294A1C4483450900FD17B1E91CC4A9
:1013BC0063DE07062286A94526857120FD57630842
:1013CC00F502294535A0971700009387A72A6314C7
:1013DC00F4008044C1B7971700009387A725E31B3F
:1013EC00F4FAC04445BFA2852685312A55D97D55CE
:1013FC00F2406244D2444249B249224A0561828099
:10140C001CC4050963D70700184C63CBE70063893C
:10141C0045011C401387170018C02380B70059B72B
:10142C00228626850D20E31F35F7D1B71C40138784
:10143C00170018C029472380E70061B79387C18044
:10144C00AA85884339BF011122CC26CA4AC806CEC8
:10145C004EC6AA842E89328401C51C4D91E33921D4
:10146C00971700009387071F6319F406C0401C4CA4
:10147C001CC48357C400A18BC9C31C48BDCF1C48D6
:10148C0008409379F90F1379F90F1D8D5C48634669
:10149C00F500A2852685652C2DE51C440505FD1758
:1014AC001CC41C401387170018C0238037015C48EC
:1014BC006389A7008357C400858B81CBA94763162A
:1014CC00F900A285268561240DEDF24062444A851F
:1014DC00D2444249B2490561828097170000938734
:1014EC0067196314F400804459B797170000938769
:1014FC006714E31EF4F6C0449DBFA2852685212007
:10150C003DDD7D59D9B741119387C18026C28443F3
:10151C0022C44AC006C62A892E8489C49C4C99E3ED
:10152C002685A926971700009387C712631CF4021F
:10153C00C0400317C40093170701C18393F68700BB
:10154C00B5EE93F607019DEEA5472320F90013672E
:10155C0007042316E4007D55B2402244924402490C
:10156C0041018280971700009387C7106314F40021
:10157C008044C1B7971700009387C70BE31BF4FA9D
:10158C00C04445BF918B8DC74C5889C993074404FF
:10159C006384F5004A859123232A04028357C400EF
:1015AC002322040093F7B7FD2316F4001C481CC03B
:1015BC008357C40093E787002316F4001C4881EF7F
:1015CC008357C4001307002093F707286385E700AF
:1015DC00A2854A85A5218357C40013F7170005C7B8
:1015EC005C4823240400B307F0401CCC1C48014584
:1015FC00A5F78317C40013F7070839DF93E707042F
:10160C002316F40089BF898B014791E3584818C40D
:10161C00F1BF83D7C500011122CC26CA06CE4AC819
:10162C004EC613F78700AA842E8471EFD841634D00
:10163C00E000B841634AE0000145F2406244D24404
:10164C004249B2490561828058547DD703A90400F0
:10165C009396370123A0040063DD06067048835778
:10166C00C400918B99C75C401D8E5C5899C33C405B
:10167C001D8E5C540C50814626858297FD5703576E
:10168C00C400631DF5009440F54763E8D706B7071F
:10169C0040208507B3D7D700858BA5C31C482322D0
:1016AC0004001CC09317370163D80700FD5763145F
:1016BC00F5009C4091E368C84C5823A02401ADDD93
:1016CC00930744046384F50026850129232A040228
:1016DC00A5B70C500146854626850297FD572A86EC
:1016EC00E31FF5F69C40A5DF75476385E700594776
:1016FC006394E70423A0240181B71367070423161E
:10170C00E4007D551DBF83A90501E38709F203A9F8
:10171C0005008D8B23A0350133093941014791E335
:10172C00D84918C4E35A20F11C540C50CA864E8672
:10173C00268582976349A0008357C40093E707046A
:10174C002316F4007DBFAA993309A940E1BF9C4937
:10175C00B9CF011122CC06CE2A8411C51C4D81E7CC
:10176C002EC62922B245971700009387A7EE639BDC
:10177C00F5004C408397C50095C722856244F24022
:10178C00056141BD971700009387C7EE6394F50080
:10179C000C44CDB7971700009387C7E9E39CF5FC81
:1017AC004C44C9BFF2406244014505618280014549
:1017BC008280411122C406C62A842316B500231741
:1017CC00C500232005002322050023240500232225
:1017DC00050623280500232A0500232C0500214695
:1017EC0081451305C505EFF04FD39717000093877C
:1017FC00E7B45CD097170000938747B71CD49717B2
:10180C000000938787BB5CD497170000938747BE73
:10181C0000D01CD8B24022444101828097050000C0
:10182C00938525F389AA411126C213068006938459
:10183C00F5FFB384C4024AC02E8922C406C6938520
:10184C00440781262A8401CD23200500232225016B
:10185C00310508C4138684068145EFF00FCC228530
:10186C00B240224492440249410182801C4DBDE3A6
:10187C00411106C622C497070000938767FA1CD54E
:10188C0097170000938707E59C4323240504232620
:10189C000504232805046314F50085471CCD2A8410
:1018AC001D2848C02285052808C422852D2048C43F
:1018BC00484001469145F53D08440546A545D53DB2
:1018CC0048440946C945F53585471CCCB2402244ED
:1018DC00410182808280411197170000938787DF36
:1018EC0026C284434AC006C69C4C22C42A8999E36A
:1018FC002685AD3F938484048044DC40FD1763D679
:10190C0007009C40B9CF8440C5BF0317C40039E71A
:10191C00C177850723220406232004002322040018
:10192C00232404005CC423280400232A0400232C51
:10193C000400214681451305C405EFF00FBE232A90
:10194C000402232C040223240404232604042285E9
:10195C00B24022449244024941018280130484061D
:10196C0071BF91454A85C13588C051FDB1472320CF
:10197C00F9000144E9BF797122D44AD052CC56CA3D
:10198C005AC85EC606D626D24ECE2A8AAE8A130412
:10199C0085040149054BFD5B09ECB25022544A8584
:1019AC0092540259F249624AD24A424BB24B4561B7
:1019BC008280044483294400FD1963D4090000404B
:1019CC00E1BF83D7C400637BFB008397E40063878C
:1019DC007701A6855285829A3369A900938484067F
:1019EC00E1BF1971A6DAAE848395E500A2DC86DE30
:1019FC00328463DC050083D7C40023A0060093F770
:101A0C00070885E7930700401DA0300836C6EF0095
:101A1C00B023B246E34105FE7247BD67F98F797773
:101A2C00BA9793B717009CC2F1BF930700041CC070
:101A3C00F6506654D65401450961828083D7C5009F
:101A4C00011122CC06CE26CA4AC8898B2E8489CF96
:101A5C00930774041CC01CC885475CC8F2406244E0
:101A6C00D24442490561828074003000AA84953FBB
:101A7C00A2452A892685312201ED8317C40013F76C
:101A8C00072069FFF19B93E727002316F400C9B7E1
:101A9C00970700009387C7D89CD48357C40008C00D
:101AAC0008C893E707082316F400A2475CC8B2479E
:101ABC0091CF8315E4002685EF00B01B01C9835735
:101ACC00C400F19B93E717002316F4008357C4005E
:101ADC003369F9002316240151B7DDC183A7C5FF73
:101AEC00411122C406C626C21384C5FF63D3070066
:101AFC003E94AA84EF00D01E938781829C4381EF91
:101B0C002322040023A481822244B24026859244DD
:101B1C0041016F00101D637EF40014403307D400A4
:101B2C006396E7009843DC43369718C05CC0D9BF76
:101B3C00BA87D84319C3E37DE4FE94433386D700B8
:101B4C00631F86001040B29694C33386D700E31D02
:101B5C00C7FA10435843B29694C3D8C375B763758C
:101B6C00C400B1479CC04DB71040B306C400631607
:101B7C00D70014435843B29614C058C0C0C369B7B9
:101B8C008280011126CA93843500F19806CE22CCAE
:101B9C004AC84EC6A104B14763F3F404B14463E2EE
:101BAC00B4042A89EF00D0139387818298433A8436
:101BBC0039E09387C1829C4391E781454A85812F07
:101BCC0023A6A182A6854A859927FD596319350755
:101BDC00B1472320F9004A85EF00B01029A0E3D0CB
:101BEC0004FCB1471CC10145F2406244D244424955
:101BFC00B249056182801C40858F63CF0702AD46D8
:101C0C0063F6F6001CC03E9404C031A05C40631324
:101C1C00870223A4F1824A85EF00B00C1305B400AF
:101C2C009307440061993307F5405DDF3A94898F3F
:101C3C001CC05DBF5CC3C5B72287404095BF130471
:101C4C0035007198E30285FCB305A4404A85C12593
:101C5C00E31C35FBB5BF1C46FD171CC663DA070039
:101C6C00184E63C5E700A9476394F5006FF0AFFD0C
:101C7C001C422E851387170018C22380B700828060
:101C8C00011122CC26CA4AC84EC652C406CE2A8995
:101C9C00AE893284B304D6007D5A63149400014596
:101CAC0009A8834504004E864A8575370504E3165A
:101CBC0045FFF2406244D2444249B249224A05618E
:101CCC008280357122CD26CB4AC94EC706CF52C56C
:101CDC0056C35AC1DEDEE2DCE6DAAA89AE8432896A
:101CEC00368401C51C4D91E351369717000093873C
:101CFC006796639BF40C83A4490083D7C400A18B23
:101D0C00F5C79C48E5C793070002A304F1029307AB
:101D1C00000302D22305F10222C6930B5002971A3C
:101D2C000000938A2A97054C294B4A848347040068
:101D3C0099C36390770FB30C2441638D0C00E68636
:101D4C004A86A6854E852D3FFD576306F51E925695
:101D5C00E69636D283470400638F071CFD571309A0
:101D6C00140002C802CE3ECA02CCA309010482D4DC
:101D7C008345090015465685B92713041900C24737
:101D8C0059E913F7070109C713070002A309E10476
:101D9C0013F7870009C71307B002A309E1048346B0
:101DAC0009001307A0026380E608F2474A848146C3
:101DBC0025460347040093051400130707FD6379B8
:101DCC00E60AB5CA3ECE85A8971700009387878A86
:101DDC006395F40083A489000DB7971700009387CF
:101DEC006785E39CF4F083A4C90001BFA6854E85EA
:101DFC00EFF06FF109D97D55FA406A44DA444A494B
:101E0C00BA492A4A9A4A0A4BF65B665CD65C0D6163
:101E1C008280050421BF330555413315AC00C98FB1
:101E2C003EC82289B1B7324793064700184336C6DD
:101E3C00634907023ACE034704009307E002631F8D
:101E4C00F704034714009307A002631BF702B24781
:101E5C000904138747009C433AC663C107023ECA74
:101E6C0035A83307E04093E727003ACE3EC8E1B7E8
:101E7C00B387670385462E84BA9725BFFD57C5B730
:101E8C00050402CA81468147254603470400930591
:101E9C001400130707FD6376E606F1F28345040090
:101EAC000D46170500001305657F312D11CD9707E1
:101EBC0000009387A77E1D8D93070004B397A7009E
:101ECC00424505045D8D2AC8834504001946170553
:101EDC0000001305E57C130914002304B102E5236B
:101EEC003DC197E7FFFF9387271195E74247B2471C
:101EFC001377071009CF91073EC69257D2973ED25F
:101F0C002DB5B387670385462E84BA97BDBF9D0751
:101F1C00E19BA107D5B7780097060000938686D67B
:101F2C0026860C084E8597000000E7000000FD5740
:101F3C002A8AE314F5FC83D7C40093F70704E39CC7
:101F4C0007EA125555BD780097060000938686D394
:101F5C0026860C084E85012AD9BF797156CA9C4930
:101F6C00BA8A984522D426D24ECE52CC06D64AD026
:101F7C005AC85EC6AA892E84B284368A63D3E70017
:101F8C00BA879CC00347340419C385079CC01C4006
:101F9C0093F7070281C79C4089079CC00329040062
:101FAC0013796900631A0900130B9401FD5B5C44FF
:101FBC009840998F634CF9041C408346340493F782
:101FCC000702B336D000A5EB13063404D2854E8538
:101FDC00829AFD576303F5041C4011469840998B77
:101FEC00544481446397C700B384E64063D3040030
:101FFC0081441C4418486354F700998FBE940149DE
:10200C0069047D5B63982405014509A885465A86B9
:10201C00D2854E85829A631E75017D55B25022542D
:10202C0092540259F249624AD24A424BB24B456130
:10203C0082800509ADBF3307D40013060003A3014A
:10204C00C7040347540493871600A2978906A381FB
:10205C00E7049DBF85462286D2854E85829AE30E83
:10206C0065FB050945B7797122D426D24AD04ECEEC
:10207C0006D652CC56CA5AC8B68983C68501930770
:10208C0090063289AA842E8413863504638DF60259
:10209C0063E2D706930780056387F61863EDD700D4
:1020AC006380062293073004638EF60A930A240495
:1020BC002301D404C9A0930730066385F60A93075D
:1020CC004006E395F6FE1C40084393F6070893057B
:1020DC004500C5C61C410CC363D807001307D002CA
:1020EC00B307F040A301E404970600009386C65B97
:1020FC0029476DA8930700076383F61663E5D7029B
:10210C009307E006638AF6189307F006E390F6FA55
:10211C000C401C4313F80508138547006307080699
:10212C0008C39C438DA893075007E383F6FE9307DF
:10213C008007638AF61293073007E399F6F61C437F
:10214C00D04181459386470014C383AA0700568566
:10215C009D2E01C53305554148C05C401CC8A301E8
:10216C00040471A81C43930A2404938647009C43DF
:10217C0014C32301F4048547D5B793F607041C4117
:10218C000CC3B9DAC207C18781BF93F5050408C334
:10219C00C9D983D707001307F0066387E60E9706A5
:1021AC000000938666502947A30104044C400CC4DC
:1021BC0063C5050008406D9908C099E3B28A91CDBA
:1021CC00B28AB3F5E702FD1AB69583C505002380E4
:1021DC00BA00B3D5E70263FFE70AA147631EF70015
:1021EC001C40858B91CB58401C4863C7E700930774
:1021FC000003A38FFAFEFD1A3306564110C84E8712
:10220C00CA867000A2852685893B7D5A631E450BC4
:10221C007D55B250225492540259F249624AD24A24
:10222C00424B45618280A382D504970600009386B9
:10223C00A6470C40084313F805081C411105630D13
:10224C00080208C313F7150001C793E505020CC07B
:10225C004147B9FB0C4093F5F5FD0CC0B1B79C415F
:10226C0093E707029CC193078007A302F404970627
:10227C0000009386A64475BF13F8050408C3E30356
:10228C0008FCC207C1837DBF970600009386C64138
:10229C00214719BFAE8735B794411C43CC4913F87D
:1022AC000608138547006306080008C39C438CC3CB
:1022BC0001A808C393F606049C43F5DA2390B700F3
:1022CC0023280400B28A25BF14485686CA85268561
:1022DC008299E30F45F31C40898B8DE7B247484444
:1022EC00E359F5F23E8535B785465686CA8526856F
:1022FC008299E30F65F1050A5C443247998FE345F7
:10230C00FAFEE9BF014A930A94017D5BF5B74111CE
:10231C0022C42A842E8523A801D806C6EFE07FECC0
:10232C00FD576317F500938701D99C4391C31CC0DB
:10233C00B240224441018280411122C42E848395F3
:10234C00E50006C64522634905007C48AA977CC86F
:10235C00B2402244410182808357C4007D777D17AF
:10236C00F98F2316F400EDB783D7C500011122CCE9
:10237C0026CA4AC84EC606CE93F70710AA842E84E6
:10238C003289B68991C78395E50089460146312289
:10239C008357C4007D777D17F98F2316F4008315BE
:1023AC00E4006244F240CE864A86B2494249268510
:1023BC00D24405613DA8411122C42E848395E500C9
:1023CC0006C6E128FD570357C400631BF500FD77D3
:1023DC00FD17F98F2316F400B2402244410182808C
:1023EC008567D98F2316F40068C8FDB78395E5007F
:1023FC0005A8411122C42A842E85B285368623A8CD
:10240C0001D806C6EFE07FDBFD576317F500938715
:10241C0001D99C4391C31CC0B2402244410182802B
:10242C00411122C42A842E8523A801D806C6CD20AA
:10243C00FD576317F500938701D99C4391C31CC0CA
:10244C00B240224441018280411122C42A842E854B
:10245C00B28523A801D806C6D120FD576317F50015
:10246C00938701D99C4391C31CC0B24022444101C3
:10247C008280411122C42A842E8523A801D806C645
:10248C006520FD576317F500938701D99C4391C3D1
:10249C001CC0B240224441018280411122C42A84D2
:1024AC002E85B285368623A801D806C66120FD5735
:1024BC006317F500938701D99C4391C31CC0B240AC
:1024CC0022444101828093F5F50F2A966314C500CE
:1024DC000145828083470500E38DB7FE0505FDB7F6
:1024EC0082808280411122C42A842E85B285368650
:1024FC0023A801D806C6A920FD576317F5009387BA
:10250C0001D99C4391C31CC0B2402244410182803A
:10251C009307800523A8F1D87D5582809307800509
:10252C0023A8F1D87D5582809307800523A8F1D884
:10253C00014582809307800523A8F1D87D558280C0
:10254C009307800523A8F1D87D5582800AE0FF1FF0
:10255C0072DFFF1F6EDEFF1F6EDEFF1F6EDEFF1FC2
:10256C0012DFFF1FFADDFF1F6EDEFF1F1CDFFF1FD8
:10257C0032DFFF1F04E0FF1F0A5374617274000006
:10258C00636D643A20253032780A000009024B0052
:10259C000201008030080B00020202010009040055
:1025AC0000010202010005240010010524010001B4
:1025BC000424020205240600010705840308000A0E
:1025CC0009040100020A0000000705010240000096
:1025DC0007058102400000001201000202000040C9
:1025EC00861A408000300102030100000E037700C0
:1025FC00630068002E0063006E0000000C034300B3
:10260C0048003500390078003031323334353637F4
:10261C00383961626364656600000000D0EAFFFF30
:10262C00F8EAFFFF20EBFFFF38EBFFFF52EBFFFF59
:10263C00000000000000000000000000000000008E
:10264C00000000000000000000000000000000007E
:10265C00000000000000000000000000000000006E
:10266C00000000000000000000000000000000005E
:10267C00000000000000000000000000000000004E
:10268C00000000000000000000000000000000003E
:10269C00232D302B20000000686C4C0065666745CC
:1026AC004647000030313233343536373839414201
:1026BC004344454600000000303132333435363760
:1026CC003839616263646566000000000403090424
:0426DC00880C002046
:1026E0000E033100320033003400350036000000A4
:1026F000000000005C2600007C2600003C26000054
:1027000000000000000000000000000000000000C9
:1027100000000000000000000000000000000000B9
:1027200000000000000000000000000000000000A9
:102730000000000000000000000000000000000099
:102740000000000000000000000000000000000089
:10275000D8B80500010200007C120020880C00207F
:00000001FF
