:040000006F00906B92
:10000400000000000000000090000020980900207B
:10001400A9BDF9F3900000200000000000000000DA
:10002400900000209000002000000000000000006C
:10003400900000200000000090000020000000005C
:1000440090000020900000209000002090000020EC
:1000540090000020900000208A01002090000020E1
:1000640090000020900000209000002090000020CC
:1000740090000020900000209000002090000020BC
:1000840090000020900000209000002090000020AC
:1000940001A0B786004083C766028D8BF9C783C76A
:1000A40081808DEF93870181984393070004631E39
:1000B400F70A23A801802382060237E700E0370607
:1000C40040002320C7180F10000083C7660293F76F
:1000D400C70F2383F6022320C710828037170040FE
:1000E40083574706035687061387C1801843918FA9
:1000F400998FF99BC5DB63D4070093870740930668
:10010400E00363D4F6009307E0031386270023A8D3
:10011400C18093D517402382B1D2A945A382B1D21D
:1001240093864182BA96938541CE01457D589308C2
:10013400F03FFD17639C070319C123A6E1801376E2
:10014400F60FB78700402382C702B7E600E0370600
:10015400400023A0C6180F10000003C767021377DE
:10016400C70F2383E70223A0C610828003C50600BD
:10017400050785062381A50463D5E8000147938616
:1001840041828505054575B78280011122CE26CCB2
:100194004ACA4EC852C6B787004003C7670003C4A3
:1001A40077001377F70F937627006384063C137464
:1001B400F40F13770403930600036305D702137740
:1001C400F403930600026309D70C63EDE606854643
:1001D400630AD70A91466303D714B78700400947D7
:1001E4002383E70062046184635A041E938741C237
:1001F40003D7670003C941C213760906239EE18031
:1002040003C71700A38FE180930620FC37870040C3
:100214002301D702938681813E87630E061013075C
:1002240010026318E92683C6F1811307200263993B
:10023400E60003C527000589971000E0E78060D534
:100244008146ADAC930610026305D70293064002C3
:10025400E315D7F803C72703134707042389E702E5
:1002640003C727031377C70F136727002389E70200
:10027400ADB703C767021377C70F1367270023833C
:10028400E702A1BF1377040429DB03C58700971095
:1002940000E0E780A0F291B79386818103C7F181E2
:1002A40095453686630EB70499466316D70603D977
:1002B400C18193070004CA8463F4270193040004F2
:1002C40083290600C204C18013FAF40F2686330979
:1002D4009940CE85138541C2CE94971000E0E78003
:1002E40040FF239E218123AC9180B7870040238067
:1002F400470303C72702134707042381E702F1BD1D
:1003040003C7370083C6460013770708558FA381B8
:10031400E7000947DDB723800702E5BF137704042C
:10032400E30D07EA03C72703134707082389E702F6
:1003340083C787005DB583C7F18129466365F608E5
:10034400171600E0130646048A07B2979C43B29737
:10035400828783D761C213D7870009466308C70819
:100364008D45630FB70885476316F70A971700E0B2
:100374009387070923ACF1800144C947C207C183AD
:1003840003D7C18163F4E700239EF18003D64600BE
:100394009307000483A9060063F4C700130600044E
:1003A40093140601C1802686CE85138541C2971019
:1003B40000E0E78000F23386990023ACC180930704
:1003C400F00F6318F40CB78700401307F0FC238187
:1003D400E702B787004009472383E7007244E244F9
:1003E4005249C249324A056173002030971700E030
:1003F400938747FC23ACF18001449307B004BDBF4D
:1004040093F7F70F85456384B70289CB638AC702E4
:100414006381E7041304F00F81478DB7971700E059
:100424009387870323ACF1800144914781BF9717D9
:1004340000E0938727FE23ACF1800144B9473DBF18
:10044400971700E0938707FE23ACF1800144B1477E
:1004540035B797170000938727A623ACF180014492
:100464009717000083C747A511BF83472700239E22
:10047400F18005A083C766002382F1C203D7C1813E
:10048400854763F8E7008547DDB783572700238F47
:10049400F180620913598941E35409DA83D7C18190
:1004A400930600043E8763F4F60013070004420732
:1004B4004183998F9376F70F239EF180B78700408D
:1004C4002380D702130700FC19B783470700894626
:1004D400FD8B6398D706834747001147638AE70477
:1004E400636CF7000547E390E7EE378700408347E6
:1004F400670293F7370715A813071008638FE700FF
:1005040013074008E391E7EC37870040834727034C
:1005140093F7C70B93E7270015A03787004083475D
:10052400670293F7C70B93E727002303F70295B7F6
:10053400378700408347270393F737072309F702D8
:1005440089BFE39207E8378700408347670293F740
:10055400C70B93E727002303F7024DBF238201C291
:1005640031BF239201C203D7C1818947E3F3E7F284
:10057400FDBD9376170089CEA38107000947238127
:10058400E702C9462383D7022389E7020547A9B5B1
:1005940093764700E38206E403C7570011472DBD55
:1005A40073270080218B9387018209CB73270080F6
:1005B40023A0E18298435D9B731007800F10000015
:1005C40037170040930670052300D704930680FA7A
:1005D4002300D7040F1000008346B70493F6F60DEA
:1005E400A305D70423000704732600809443A18A3B
:1005F400D18E7390068023A001820F1000009376A1
:100604000502638406180347A700118B25E77327A7
:100614000080218B09CB7327008023A0E1829843BB
:100624005D9B731007800F1000003717004093067E
:1006340070052300D704930680FA2300D7040F1013
:1006440000008346A70093E646002305D700230055
:100654000704F32600809843218B558F731007807D
:1006640023A001820F1000001307004B01000100BA
:100674007D176DFF73270080218B09CB73270080C2
:1006840023A0E18298435D9B731007800F10000044
:1006940037170040930670052300D704930680FAA9
:1006A4002300D7040F1000007D892314A700010044
:1006B40001000100010023000704F3260080984391
:1006C400218B558F7310078023A001820F10000027
:1006D40073270080218B09CB7327008023A0E1823C
:1006E40098435D9B731007800F100000371700407C
:1006F400930670052300D704930680FA2300D704D9
:100704000F1000000F100000B7260040130610055C
:10071400A383C68023000704F32600809843218B1B
:10072400558F7310078023A001820F1000007327D8
:100734000080218B09CB7327008023A0E18298439A
:100744005D9B731007800F1000003717004093065D
:1007540070052300D704930680FA2300D7040F10F2
:1007640000008346B70493E60608A305D7042300D4
:100774000704732700809C43A18BD98F7390078053
:1007840023A001820F100000828093760504638BFE
:1007940006140347A700418B25E773270080218BAC
:1007A40009CB7327008023A0E18298435D9B7310DB
:1007B40007800F10000037170040930670052300D0
:1007C400D704930680FA2300D7040F100000834651
:1007D400A70093E606012305D70023000704F326A8
:1007E40000809843218B558F7310078023A00182CA
:1007F4000F1000001307007D010001007D176DFF3D
:1008040073270080218B09CB7327008023A0E1820A
:1008140098435D9B731007800F100000371700404A
:10082400930670052300D704930680FA2300D704A7
:100834000F1000009376F50193E606042314D70005
:10084400010001000100010023000704F3260080D9
:100854009843218B558F7310078023A001820F10BA
:100864000000130760046310E50473270080218BE4
:1008740009CB7327008023A0E18298435D9B73100A
:1008840007800F10000037170040930670052300FF
:10089400D704930680FA2300D7040F100000B7266C
:1008A40000400946B5B573270080218B09CB732717
:1008B400008023A0E18298435D9B731007800F1092
:1008C400000037170040930670052300D7049306F1
:1008D40080FA2300D7040F100000B7260040130647
:1008E40020053DB573270080218B09CB7327008039
:1008F40023A0E18298435D9B731007800F100000D2
:1009040037170040930670052300D704930680FA36
:100914002300D7040F1000008356870093E6060CCB
:100924002314D700C5BB41118146014681451145B9
:1009340006C6192CF3270080A18B9386018289CBEC
:10094400F327008023A0F1829C42DD9B73900780F3
:100954000F100000B7170040130770052380E70449
:10096400130780FA2380E7040F10000003C767040D
:10097400136717002383E704238007047327008089
:100984009C42A18BD98F7390078023A001820F1002
:100994000000B240410182808146014681451145F3
:1009A4006522F3270080A18B1387018289CBF3276B
:1009B400008023A0F1821C43DD9B739007800F10FD
:1009C4000000B7170040930670052380D7049306F0
:1009D40080FA2380D7040F100000FD562396D70217
:1009E40023800704F32600801C43A18BD58F7390CA
:1009F400078023A001820F100000F3270080A18B41
:100A040089CBF327008023A0F1821C43DD9B7390E4
:100A140007800F100000B71700409306700523806D
:100A2400D704930680FA2380D7040F10000083C6EE
:100A3400670493E616002383D70423800704F32670
:100A440000801C43A18BD58F7390078023A0018263
:100A54000F10000001A0BD473305F50201007D150C
:100A640075FD8280411122C426C206C6AA840144AF
:100A740063179400B24022449244410182800504E9
:100A84001305803E4204C13F4180DDB72303048047
:100A940015472303E48001002302A4808280830796
:100AA4006480E3CE07FE230304808280830764808E
:100AB400E3CE07FE03454480828083076480E3CE4F
:100AC40007FE2302A4808280411126C44AC24EC07C
:100AD40006C61377F50BAD47AA892E89954463069C
:100AE400F70019456537653F8D444E854537FD59F7
:100AF400FD1463983401B240A24412498249410171
:100B04008280135509011375F50F453F2209CDB7AE
:100B1400011126CC06CEB704080051371545BD3760
:100B2400713769372AC6A53F32459377150089EB9B
:100B3400136515001375F50FF240E24405618280D8
:100B4400FD14E9FC0145CDBF397126DC4ADA4ED8E3
:100B540052D656D45AD25ED006DE62CE66CCB7E701
:100B640000E07D5783AA070022C603AA470023A0FA
:100B7400E71823A2E718B71700401307700523806E
:100B8400E704130780FA2380E70483C74704930B21
:100B940075FFB684E20793FBFB0F8546AA892E8B6B
:100BA400328937240040E187015763FA76016308EC
:100BB400D5008946130700026313D5000157D98F66
:100BC40093F7F70FB71C00402382FC04114723035B
:100BD400E4801305F00F5D3D094CD135636D7C1144
:100BE400B7050700DA9537870700795563F2E504FE
:100BF400B3879500636EF702370B0800A94733EB00
:100C040065016399F90689E48144513D26850DA067
:100C1400DA850945553D05090345F9FFFD14050B22
:100C2400693D81C49377FB0FFDF7DD3569FD7D5583
:100C3400B7170040130770052380E704130780FAF1
:100C44002380E70403C74704418B2382E704F2505F
:100C5400B7E700E023A0571123A24711E25432441E
:100C64005259C259325AA25A125B825B724CE24CFC
:100C740021618280A5476395F90685691309F00F00
:100C8400B3069900B3742B01B6941349F9FFB374F6
:100C94009900856B33796901416B9387F9FFB3F749
:100CA400270199E363FC340193D94900C147E3E682
:100CB40037FF99BF0569C1697D19D9B71305800D3F
:100CC4006388690113050002638479011305100820
:100CD400CA85DD3B353D21DD4E99B3843441D9B716
:100CE400DA852D45D533CA94E30099F205097D3B95
:100CF400A30FA9FED5BF9387F9FF93F7F70F63619D
:100D0400FC0C83C71C0413073008631FF704370760
:100D14000800636BEB04B3079B00B706100063F590
:100D2400D704334BEB0089476393F9068980D5498F
:100D3400E38C04ECDA850945413B11090327C9FF1B
:100D440091472320E48003076480E34E07FE2303D6
:100D54003481FD17EDFBFD14110B81C49377FB0F58
:100D6400E9FF7D3371F5E1B5B717004003C75704B8
:100D7400B70708001377070219E3B7870700795507
:100D8400E378FBEA33079B00E3FFE7F855B58547B3
:100D9400E382F9F2DA852D45053B9389F4FFE38577
:100DA40004E6293393F7390091EB83260480032763
:100DB400090093074900E39AE6E43E89CE84F1BF33
:100DC400B5476396F9001305900BC93135BDB1479A
:100DD4001305B00AE38BF9FE99476391F904B7054B
:100DE4000800B365BB002D45C53181448D4BA14935
:100DF400753963967401832704802320F9008504E0
:100E0400E39834FF8327048013172B0163550700ED
:100E14002312F900D5BB2322F900FDB39D47639942
:100E2400F90281451305B0044531BD44232009006E
:100E340023220900FD599D3993F77400CA9703C70B
:100E44000700FD14398D2380A700E39634FF6DBBA2
:100E5400A1476392F9046D398144630D0B008D47FA
:100E64009304C0036308FB009304000563048B012F
:100E7400930440041375C507E30895D8194539311F
:100E840039390545213126850D3909453D31493129
:100E9400E31C05D669BB91476399F9001305600605
:100EA400F536F53E130590090DB7E38F09D4F154D7
:040EB400A9BB0000D6
:100EB80097110020938101811771002013010114FB
:100EC8001305400097F5FF1F93854513170600206B
:100ED800130606FE63FAC5008322050023A0550009
:100EE80011059105E3EAC5FE1705000013058556AF
:100EF800970500209385C5FB1386818063FAC5009A
:100F08008322050023A0550011059105E3EAC5FEDB
:100F180013858180938541D86377B5002320050028
:100F28001105E36DB5FEFD42739002BC8D427390CE
:100F38004280930280087390023097F2FF1F9382D9
:100F4800E20B93E232007390523037170040930758
:100F580070052300F704930780FA2300F7040F10A5
:100F680000003C47B70600FAE116F58FB706000601
:100F78009506D58F3CC7970200009382420C739068
:100F8800123473002030411126C206C622C4AA8436
:100F9800B71700400565A380070681454105492428
:100FA800ADCC170400201304E4F11840B7C70500BE
:100FB8009387878D63FAE706170700202324F7F045
:100FC80003454400834554000D898D892382A180FF
:100FD800A382B18083C76180B9CF0D243717004041
:100FE800230C07041440B747390093870787B3D702
:100FF800D702B307F04093F7F70FA301F70623A62C
:101008000180938741822314F706938741C22316F0
:10101800F706930750F8A300F706B240224423844A
:1010280091809244410182809307B05DE3EAE7F83A
:101038009307C05D51B74D2255B7797113058004E8
:1010480006D622D426D24AD04ECE52CC56CA5AC838
:101058005EC697F0FF1FE7806054BD200145253725
:101068001304500585441309A00AB7190040114A12
:10107800A14A138B51D6970B0020938BABE497F0C2
:10108800FF1FE780C00083C74181F5DB03C741D656
:10109800631F8700637AFA00214663E4FA00138627
:1010A800F7FFDA855E8505240545F13D09A863FB50
:1010B800F4006319270183C751D6A381F906238A4F
:1010C800018075BF0145D5B74111B787004006C6F5
:1010D800B7F50700238007008146138641C2E10562
:1010E800194597000020E780E0A59307E03017072F
:1010F8000020231FF7DA014697070020938747DB74
:10110800938641C217050000130505320D48338741
:10111800C60003470700A3810700A3820700935571
:1011280047003D8BAA952A9783C50500034707000A
:1011380005062381B7002382E7009107E31906FD1E
:10114800B78700401307C0FCC2062386E700C182A8
:101158002398D700138741CE239AE7002947238194
:10116800E70249472383E70209472389E702A38166
:101178000700130790022380E700B716004003D743
:10118800A6011367070C239DE6007D572383E7001C
:101198001D472381E700130710F8A380E700B2403A
:1011A800B7E700E03707400023A0E710410182803D
:1011B80083C741818DE305C1930700021376F50FBC
:1011C80063F4A70013060002238AC180938541CEE9
:1011D800138541D6CDA88280B717004003C777058D
:1011E8001A0592054D8D1377E70F13653500A38B0C
:1011F800E7041375F50FA38CA7048280B717004086
:1012080003C777051A0592054D8D1377E70F136508
:101218005500A38BE7041375F50FA38CA7048280F0
:10122800914763EEB70217070000130727218A05C5
:10123800BA959C41BA978287B717004003A7470B16
:101248001345F5FF698F23AAE70A03A7070B698FE0
:1012580023A8E70A03A7070A798D23A0A70A828093
:10126800B717004083A6470B1347F5FFF98E23AA4B
:10127800D70A83A6070B558D23A8A70A83A6070AB2
:10128800758F23A0E70A8280B717004003A7470B92
:10129800498F23AAE70A03A7070B1345F5FF45BFA4
:1012A800B717004083A6470B1347F5FF758F23AA8E
:1012B800E70A03A7070A598D4DB7B717004003A7D8
:1012C800470B498FEDB7B3C7A5008D8B3307C50012
:1012D80081E78D4763EEC700AA876370E50A83C676
:1012E800050085078505A38FD7FEE3EAE7FE828020
:1012F80093763500AA8791CA83C6050085078505B8
:10130800A38FD7FE93F63700FDB79376C7FF1386F2
:1013180006FE63F0C70683A3050083A2450083AFDA
:10132800850003AFC50083AE050103AE450103A3E5
:10133800850183A8C5019385450223A0770003A8EA
:10134800C5FF23A2570023A4F70123A6E70123A87A
:10135800D70123AAC70123AC670023AE17019387DF
:10136800470223AE07FF75B790419107910523AE59
:10137800C7FEE3EBD7FEE3E4E7F68280DEF1FF1F6A
:1013880046F1FF1F42F0FF1F42F0FF1F42F0FF1F10
:10139800E6F0FF1FCEEFFF1F42F0FF1FF0F0FF1F28
:1013A80006F1FF1FD8F1FF1F09024B000201008060
:1013B80030080B00020202010009040000010202C9
:1013C8000100052400100105240100010424020283
:1013D80005240600010705840308000A0904010022
:1013E800020A00000007050102400000070581020B
:1013F800400000001201000202000040861A4080EE
:1014080000300102030100000E037700630068004A
:101418002E0063006E0000000C03430048003500F6
:101428003800780030313233343536373839616234
:10143800636465660000000000FEFFFF28FEFFFFF2
:1014480050FEFFFF68FEFFFF82FEFFFF0403090452
:101458000E0331003200330034003500360000003E
:0C14680000000000D8B8050001020000E0
:00000001FF
